{
  "_format": "hh-sol-artifact-1",
  "contractName": "MessageBoard",
  "sourceName": "contracts/MessageBoard.sol",
  "abi": [
    {
      "inputs": [],
      "stateMutability": "nonpayable",
      "type": "constructor"
    },
    {
      "anonymous": false,
      "inputs": [
        {
          "indexed": true,
          "internalType": "address",
          "name": "owner",
          "type": "address"
        },
        {
          "indexed": true,
          "internalType": "address",
          "name": "approved",
          "type": "address"
        },
        {
          "indexed": true,
          "internalType": "uint256",
          "name": "tokenId",
          "type": "uint256"
        }
      ],
      "name": "Approval",
      "type": "event"
    },
    {
      "anonymous": false,
      "inputs": [
        {
          "indexed": true,
          "internalType": "address",
          "name": "owner",
          "type": "address"
        },
        {
          "indexed": true,
          "internalType": "address",
          "name": "operator",
          "type": "address"
        },
        {
          "indexed": false,
          "internalType": "bool",
          "name": "approved",
          "type": "bool"
        }
      ],
      "name": "ApprovalForAll",
      "type": "event"
    },
    {
      "anonymous": false,
      "inputs": [
        {
          "indexed": true,
          "internalType": "uint256",
          "name": "messageId",
          "type": "uint256"
        },
        {
          "indexed": true,
          "internalType": "address",
          "name": "liker",
          "type": "address"
        }
      ],
      "name": "MessageLiked",
      "type": "event"
    },
    {
      "anonymous": false,
      "inputs": [
        {
          "indexed": true,
          "internalType": "address",
          "name": "sender",
          "type": "address"
        },
        {
          "indexed": false,
          "internalType": "string",
          "name": "content",
          "type": "string"
        }
      ],
      "name": "MessageSent",
      "type": "event"
    },
    {
      "anonymous": false,
      "inputs": [
        {
          "indexed": true,
          "internalType": "address",
          "name": "previousOwner",
          "type": "address"
        },
        {
          "indexed": true,
          "internalType": "address",
          "name": "newOwner",
          "type": "address"
        }
      ],
      "name": "OwnershipTransferred",
      "type": "event"
    },
    {
      "anonymous": false,
      "inputs": [
        {
          "indexed": true,
          "internalType": "address",
          "name": "from",
          "type": "address"
        },
        {
          "indexed": true,
          "internalType": "address",
          "name": "to",
          "type": "address"
        },
        {
          "indexed": true,
          "internalType": "uint256",
          "name": "tokenId",
          "type": "uint256"
        }
      ],
      "name": "Transfer",
      "type": "event"
    },
    {
      "inputs": [],
      "name": "_baseTokenURI",
      "outputs": [
        {
          "internalType": "string",
          "name": "",
          "type": "string"
        }
      ],
      "stateMutability": "view",
      "type": "function"
    },
    {
      "inputs": [],
      "name": "_tokenIdCounter",
      "outputs": [
        {
          "internalType": "uint256",
          "name": "",
          "type": "uint256"
        }
      ],
      "stateMutability": "view",
      "type": "function"
    },
    {
      "inputs": [
        {
          "internalType": "address",
          "name": "to",
          "type": "address"
        },
        {
          "internalType": "uint256",
          "name": "tokenId",
          "type": "uint256"
        }
      ],
      "name": "approve",
      "outputs": [],
      "stateMutability": "nonpayable",
      "type": "function"
    },
    {
      "inputs": [
        {
          "internalType": "address",
          "name": "owner",
          "type": "address"
        }
      ],
      "name": "balanceOf",
      "outputs": [
        {
          "internalType": "uint256",
          "name": "",
          "type": "uint256"
        }
      ],
      "stateMutability": "view",
      "type": "function"
    },
    {
      "inputs": [
        {
          "internalType": "uint256",
          "name": "tokenId",
          "type": "uint256"
        }
      ],
      "name": "getApproved",
      "outputs": [
        {
          "internalType": "address",
          "name": "",
          "type": "address"
        }
      ],
      "stateMutability": "view",
      "type": "function"
    },
    {
      "inputs": [
        {
          "internalType": "uint256",
          "name": "_messageId",
          "type": "uint256"
        }
      ],
      "name": "getMessage",
      "outputs": [
        {
          "internalType": "address",
          "name": "sender",
          "type": "address"
        },
        {
          "internalType": "string",
          "name": "content",
          "type": "string"
        },
        {
          "internalType": "uint256",
          "name": "likes",
          "type": "uint256"
        }
      ],
      "stateMutability": "view",
      "type": "function"
    },
    {
      "inputs": [],
      "name": "getMessageCount",
      "outputs": [
        {
          "internalType": "uint256",
          "name": "",
          "type": "uint256"
        }
      ],
      "stateMutability": "view",
      "type": "function"
    },
    {
      "inputs": [
        {
          "internalType": "address",
          "name": "owner",
          "type": "address"
        },
        {
          "internalType": "address",
          "name": "operator",
          "type": "address"
        }
      ],
      "name": "isApprovedForAll",
      "outputs": [
        {
          "internalType": "bool",
          "name": "",
          "type": "bool"
        }
      ],
      "stateMutability": "view",
      "type": "function"
    },
    {
      "inputs": [
        {
          "internalType": "uint256",
          "name": "_messageId",
          "type": "uint256"
        }
      ],
      "name": "likeMessage",
      "outputs": [],
      "stateMutability": "nonpayable",
      "type": "function"
    },
    {
      "inputs": [
        {
          "internalType": "uint256",
          "name": "",
          "type": "uint256"
        }
      ],
      "name": "messages",
      "outputs": [
        {
          "internalType": "address",
          "name": "sender",
          "type": "address"
        },
        {
          "internalType": "string",
          "name": "content",
          "type": "string"
        },
        {
          "internalType": "uint256",
          "name": "likes",
          "type": "uint256"
        }
      ],
      "stateMutability": "view",
      "type": "function"
    },
    {
      "inputs": [],
      "name": "name",
      "outputs": [
        {
          "internalType": "string",
          "name": "",
          "type": "string"
        }
      ],
      "stateMutability": "view",
      "type": "function"
    },
    {
      "inputs": [],
      "name": "owner",
      "outputs": [
        {
          "internalType": "address",
          "name": "",
          "type": "address"
        }
      ],
      "stateMutability": "view",
      "type": "function"
    },
    {
      "inputs": [
        {
          "internalType": "uint256",
          "name": "tokenId",
          "type": "uint256"
        }
      ],
      "name": "ownerOf",
      "outputs": [
        {
          "internalType": "address",
          "name": "",
          "type": "address"
        }
      ],
      "stateMutability": "view",
      "type": "function"
    },
    {
      "inputs": [],
      "name": "renounceOwnership",
      "outputs": [],
      "stateMutability": "nonpayable",
      "type": "function"
    },
    {
      "inputs": [
        {
          "internalType": "address",
          "name": "from",
          "type": "address"
        },
        {
          "internalType": "address",
          "name": "to",
          "type": "address"
        },
        {
          "internalType": "uint256",
          "name": "tokenId",
          "type": "uint256"
        }
      ],
      "name": "safeTransferFrom",
      "outputs": [],
      "stateMutability": "nonpayable",
      "type": "function"
    },
    {
      "inputs": [
        {
          "internalType": "address",
          "name": "from",
          "type": "address"
        },
        {
          "internalType": "address",
          "name": "to",
          "type": "address"
        },
        {
          "internalType": "uint256",
          "name": "tokenId",
          "type": "uint256"
        },
        {
          "internalType": "bytes",
          "name": "data",
          "type": "bytes"
        }
      ],
      "name": "safeTransferFrom",
      "outputs": [],
      "stateMutability": "nonpayable",
      "type": "function"
    },
    {
      "inputs": [
        {
          "internalType": "string",
          "name": "_content",
          "type": "string"
        }
      ],
      "name": "sendMessage",
      "outputs": [],
      "stateMutability": "nonpayable",
      "type": "function"
    },
    {
      "inputs": [
        {
          "internalType": "address",
          "name": "operator",
          "type": "address"
        },
        {
          "internalType": "bool",
          "name": "approved",
          "type": "bool"
        }
      ],
      "name": "setApprovalForAll",
      "outputs": [],
      "stateMutability": "nonpayable",
      "type": "function"
    },
    {
      "inputs": [
        {
          "internalType": "string",
          "name": "baseTokenURI",
          "type": "string"
        }
      ],
      "name": "setBaseTokenURI",
      "outputs": [],
      "stateMutability": "nonpayable",
      "type": "function"
    },
    {
      "inputs": [
        {
          "internalType": "bytes4",
          "name": "interfaceId",
          "type": "bytes4"
        }
      ],
      "name": "supportsInterface",
      "outputs": [
        {
          "internalType": "bool",
          "name": "",
          "type": "bool"
        }
      ],
      "stateMutability": "view",
      "type": "function"
    },
    {
      "inputs": [],
      "name": "symbol",
      "outputs": [
        {
          "internalType": "string",
          "name": "",
          "type": "string"
        }
      ],
      "stateMutability": "view",
      "type": "function"
    },
    {
      "inputs": [
        {
          "internalType": "uint256",
          "name": "index",
          "type": "uint256"
        }
      ],
      "name": "tokenByIndex",
      "outputs": [
        {
          "internalType": "uint256",
          "name": "",
          "type": "uint256"
        }
      ],
      "stateMutability": "view",
      "type": "function"
    },
    {
      "inputs": [
        {
          "internalType": "address",
          "name": "owner",
          "type": "address"
        },
        {
          "internalType": "uint256",
          "name": "index",
          "type": "uint256"
        }
      ],
      "name": "tokenOfOwnerByIndex",
      "outputs": [
        {
          "internalType": "uint256",
          "name": "",
          "type": "uint256"
        }
      ],
      "stateMutability": "view",
      "type": "function"
    },
    {
      "inputs": [
        {
          "internalType": "uint256",
          "name": "tokenId",
          "type": "uint256"
        }
      ],
      "name": "tokenURI",
      "outputs": [
        {
          "internalType": "string",
          "name": "",
          "type": "string"
        }
      ],
      "stateMutability": "view",
      "type": "function"
    },
    {
      "inputs": [],
      "name": "totalSupply",
      "outputs": [
        {
          "internalType": "uint256",
          "name": "",
          "type": "uint256"
        }
      ],
      "stateMutability": "view",
      "type": "function"
    },
    {
      "inputs": [
        {
          "internalType": "address",
          "name": "from",
          "type": "address"
        },
        {
          "internalType": "address",
          "name": "to",
          "type": "address"
        },
        {
          "internalType": "uint256",
          "name": "tokenId",
          "type": "uint256"
        }
      ],
      "name": "transferFrom",
      "outputs": [],
      "stateMutability": "nonpayable",
      "type": "function"
    },
    {
      "inputs": [
        {
          "internalType": "address",
          "name": "newOwner",
          "type": "address"
        }
      ],
      "name": "transferOwnership",
      "outputs": [],
      "stateMutability": "nonpayable",
      "type": "function"
    }
  ],
  "bytecode": "0x60806040523480156200001157600080fd5b506040518060400160405280600581526020017f5175616e740000000000000000000000000000000000000000000000000000008152506040518060400160405280600381526020017f514e54000000000000000000000000000000000000000000000000000000000081525081600090816200008f91906200043d565b508060019081620000a191906200043d565b505050620000c4620000b8620000f560201b60201c565b620000fd60201b60201c565b6040518060800160405280605081526020016200424360509139600b9081620000ee91906200043d565b5062000524565b600033905090565b6000600a60009054906101000a900473ffffffffffffffffffffffffffffffffffffffff16905081600a60006101000a81548173ffffffffffffffffffffffffffffffffffffffff021916908373ffffffffffffffffffffffffffffffffffffffff1602179055508173ffffffffffffffffffffffffffffffffffffffff168173ffffffffffffffffffffffffffffffffffffffff167f8be0079c531659141344cd1fd0a4f28419497f9722a3daafe3b4186f6b6457e060405160405180910390a35050565b600081519050919050565b7f4e487b7100000000000000000000000000000000000000000000000000000000600052604160045260246000fd5b7f4e487b7100000000000000000000000000000000000000000000000000000000600052602260045260246000fd5b600060028204905060018216806200024557607f821691505b6020821081036200025b576200025a620001fd565b5b50919050565b60008190508160005260206000209050919050565b60006020601f8301049050919050565b600082821b905092915050565b600060088302620002c57fffffffffffffffffffffffffffffffffffffffffffffffffffffffffffffffff8262000286565b620002d1868362000286565b95508019841693508086168417925050509392505050565b6000819050919050565b6000819050919050565b60006200031e620003186200031284620002e9565b620002f3565b620002e9565b9050919050565b6000819050919050565b6200033a83620002fd565b62000352620003498262000325565b84845462000293565b825550505050565b600090565b620003696200035a565b620003768184846200032f565b505050565b5b818110156200039e57620003926000826200035f565b6001810190506200037c565b5050565b601f821115620003ed57620003b78162000261565b620003c28462000276565b81016020851015620003d2578190505b620003ea620003e18562000276565b8301826200037b565b50505b505050565b600082821c905092915050565b60006200041260001984600802620003f2565b1980831691505092915050565b60006200042d8383620003ff565b9150826002028217905092915050565b6200044882620001c3565b67ffffffffffffffff811115620004645762000463620001ce565b5b6200047082546200022c565b6200047d828285620003a2565b600060209050601f831160018114620004b55760008415620004a0578287015190505b620004ac85826200041f565b8655506200051c565b601f198416620004c58662000261565b60005b82811015620004ef57848901518255600182019150602085019450602081019050620004c8565b868310156200050f57848901516200050b601f891682620003ff565b8355505b6001600288020188555050505b505050505050565b613d0f80620005346000396000f3fe608060405234801561001057600080fd5b50600436106101a95760003560e01c80634f6ccce7116100f957806395d89b4111610097578063c87b56dd11610071578063c87b56dd146104d0578063cfc86f7b14610500578063e985e9c51461051e578063f2fde38b1461054e576101a9565b806395d89b411461047a578063a22cb46514610498578063b88d4fde146104b4576101a9565b8063715018a6116100d3578063715018a61461040257806384c4bd4b1461040c57806386f79edb1461042a5780638da5cb5b1461045c576101a9565b80634f6ccce7146103725780636352211e146103a257806370a08231146103d2576101a9565b806323b872dd116101665780633193391611610140578063319339161461030057806342842e0e1461031e578063469c81101461033a5780634baeb4db14610356576101a9565b806323b872dd146102985780632f745c59146102b457806330176e13146102e4576101a9565b806301ffc9a7146101ae57806306fdde03146101de578063081812fc146101fc578063095ea7b31461022c5780630d80fefd1461024857806318160ddd1461027a575b600080fd5b6101c860048036038101906101c391906127d0565b61056a565b6040516101d59190612818565b60405180910390f35b6101e66105e4565b6040516101f391906128c3565b60405180910390f35b6102166004803603810190610211919061291b565b610676565b6040516102239190612989565b60405180910390f35b610246600480360381019061024191906129d0565b6106bc565b005b610262600480360381019061025d919061291b565b6107d3565b60405161027193929190612a1f565b60405180910390f35b6102826108b5565b60405161028f9190612a5d565b60405180910390f35b6102b260048036038101906102ad9190612a78565b6108c2565b005b6102ce60048036038101906102c991906129d0565b610922565b6040516102db9190612a5d565b60405180910390f35b6102fe60048036038101906102f99190612c00565b6109c7565b005b6103086109e2565b6040516103159190612a5d565b60405180910390f35b61033860048036038101906103339190612a78565b6109ef565b005b610354600480360381019061034f9190612c00565b610a0f565b005b610370600480360381019061036b919061291b565b610b6a565b005b61038c6004803603810190610387919061291b565b610caf565b6040516103999190612a5d565b60405180910390f35b6103bc60048036038101906103b7919061291b565b610d20565b6040516103c99190612989565b60405180910390f35b6103ec60048036038101906103e79190612c49565b610da6565b6040516103f99190612a5d565b60405180910390f35b61040a610e5d565b005b610414610e71565b6040516104219190612a5d565b60405180910390f35b610444600480360381019061043f919061291b565b610e77565b60405161045393929190612a1f565b60405180910390f35b610464610faf565b6040516104719190612989565b60405180910390f35b610482610fd9565b60405161048f91906128c3565b60405180910390f35b6104b260048036038101906104ad9190612ca2565b61106b565b005b6104ce60048036038101906104c99190612d83565b611081565b005b6104ea60048036038101906104e5919061291b565b6110e3565b6040516104f791906128c3565b60405180910390f35b61050861114b565b60405161051591906128c3565b60405180910390f35b61053860048036038101906105339190612e06565b6111d9565b6040516105459190612818565b60405180910390f35b61056860048036038101906105639190612c49565b61126d565b005b60007f780e9d63000000000000000000000000000000000000000000000000000000007bffffffffffffffffffffffffffffffffffffffffffffffffffffffff1916827bffffffffffffffffffffffffffffffffffffffffffffffffffffffff191614806105dd57506105dc826112f0565b5b9050919050565b6060600080546105f390612e75565b80601f016020809104026020016040519081016040528092919081815260200182805461061f90612e75565b801561066c5780601f106106415761010080835404028352916020019161066c565b820191906000526020600020905b81548152906001019060200180831161064f57829003601f168201915b5050505050905090565b6000610681826113d2565b6004600083815260200190815260200160002060009054906101000a900473ffffffffffffffffffffffffffffffffffffffff169050919050565b60006106c782610d20565b90508073ffffffffffffffffffffffffffffffffffffffff168373ffffffffffffffffffffffffffffffffffffffff1603610737576040517f08c379a000000000000000000000000000000000000000000000000000000000815260040161072e90612f18565b60405180910390fd5b8073ffffffffffffffffffffffffffffffffffffffff1661075661141d565b73ffffffffffffffffffffffffffffffffffffffff16148061078557506107848161077f61141d565b6111d9565b5b6107c4576040517f08c379a00000000000000000000000000000000000000000000000000000000081526004016107bb90612faa565b60405180910390fd5b6107ce8383611425565b505050565b600d81815481106107e357600080fd5b90600052602060002090600302016000915090508060000160009054906101000a900473ffffffffffffffffffffffffffffffffffffffff169080600101805461082c90612e75565b80601f016020809104026020016040519081016040528092919081815260200182805461085890612e75565b80156108a55780601f1061087a576101008083540402835291602001916108a5565b820191906000526020600020905b81548152906001019060200180831161088857829003601f168201915b5050505050908060020154905083565b6000600880549050905090565b6108d36108cd61141d565b826114de565b610912576040517f08c379a00000000000000000000000000000000000000000000000000000000081526004016109099061303c565b60405180910390fd5b61091d838383611573565b505050565b600061092d83610da6565b821061096e576040517f08c379a0000000000000000000000000000000000000000000000000000000008152600401610965906130ce565b60405180910390fd5b600660008473ffffffffffffffffffffffffffffffffffffffff1673ffffffffffffffffffffffffffffffffffffffff168152602001908152602001600020600083815260200190815260200160002054905092915050565b6109cf61186c565b80600b90816109de919061329a565b5050565b6000600d80549050905090565b610a0a83838360405180602001604052806000815250611081565b505050565b6000815111610a53576040517f08c379a0000000000000000000000000000000000000000000000000000000008152600401610a4a906133b8565b60405180910390fd5b600d60405180606001604052803373ffffffffffffffffffffffffffffffffffffffff1681526020018381526020016000815250908060018154018082558091505060019003906000526020600020906003020160009091909190915060008201518160000160006101000a81548173ffffffffffffffffffffffffffffffffffffffff021916908373ffffffffffffffffffffffffffffffffffffffff1602179055506020820151816001019081610b0c919061329a565b506040820151816002015550503373ffffffffffffffffffffffffffffffffffffffff167f0d7fccda06d6eb51c23cbd16d49b9b3f3ebafb002dba1b074895cbb35d0e813082604051610b5f91906128c3565b60405180910390a250565b600d805490508110610bb1576040517f08c379a0000000000000000000000000000000000000000000000000000000008152600401610ba890613424565b60405180910390fd5b600d8181548110610bc557610bc4613444565b5b90600052602060002090600302016002016000815480929190610be7906134a2565b91905055503373ffffffffffffffffffffffffffffffffffffffff16817f518ee79129b832b137fb93434354b830b11710eebd5204954b1da274475fa28560405160405180910390a3600a600d8281548110610c4657610c45613444565b5b90600052602060002090600302016002015410610cac57610cab600d8281548110610c7457610c73613444565b5b906000526020600020906003020160000160009054906101000a900473ffffffffffffffffffffffffffffffffffffffff166118ea565b5b50565b6000610cb96108b5565b8210610cfa576040517f08c379a0000000000000000000000000000000000000000000000000000000008152600401610cf19061355c565b60405180910390fd5b60088281548110610d0e57610d0d613444565b5b90600052602060002001549050919050565b600080610d2c83611904565b9050600073ffffffffffffffffffffffffffffffffffffffff168173ffffffffffffffffffffffffffffffffffffffff1603610d9d576040517f08c379a0000000000000000000000000000000000000000000000000000000008152600401610d94906135c8565b60405180910390fd5b80915050919050565b60008073ffffffffffffffffffffffffffffffffffffffff168273ffffffffffffffffffffffffffffffffffffffff1603610e16576040517f08c379a0000000000000000000000000000000000000000000000000000000008152600401610e0d9061365a565b60405180910390fd5b600360008373ffffffffffffffffffffffffffffffffffffffff1673ffffffffffffffffffffffffffffffffffffffff168152602001908152602001600020549050919050565b610e6561186c565b610e6f6000611941565b565b600c5481565b600060606000600d805490508410610ec4576040517f08c379a0000000000000000000000000000000000000000000000000000000008152600401610ebb90613424565b60405180910390fd5b6000600d8581548110610eda57610ed9613444565b5b906000526020600020906003020190508060000160009054906101000a900473ffffffffffffffffffffffffffffffffffffffff169350806001018054610f2090612e75565b80601f0160208091040260200160405190810160405280929190818152602001828054610f4c90612e75565b8015610f995780601f10610f6e57610100808354040283529160200191610f99565b820191906000526020600020905b815481529060010190602001808311610f7c57829003601f168201915b5050505050925080600201549150509193909250565b6000600a60009054906101000a900473ffffffffffffffffffffffffffffffffffffffff16905090565b606060018054610fe890612e75565b80601f016020809104026020016040519081016040528092919081815260200182805461101490612e75565b80156110615780601f1061103657610100808354040283529160200191611061565b820191906000526020600020905b81548152906001019060200180831161104457829003601f168201915b5050505050905090565b61107d61107661141d565b8383611a07565b5050565b61109261108c61141d565b836114de565b6110d1576040517f08c379a00000000000000000000000000000000000000000000000000000000081526004016110c89061303c565b60405180910390fd5b6110dd84848484611b73565b50505050565b60606110ee826113d2565b60006110f8611bcf565b905060008151116111185760405180602001604052806000815250611143565b8061112284611c61565b6040516020016111339291906136b6565b6040516020818303038152906040525b915050919050565b600b805461115890612e75565b80601f016020809104026020016040519081016040528092919081815260200182805461118490612e75565b80156111d15780601f106111a6576101008083540402835291602001916111d1565b820191906000526020600020905b8154815290600101906020018083116111b457829003601f168201915b505050505081565b6000600560008473ffffffffffffffffffffffffffffffffffffffff1673ffffffffffffffffffffffffffffffffffffffff16815260200190815260200160002060008373ffffffffffffffffffffffffffffffffffffffff1673ffffffffffffffffffffffffffffffffffffffff16815260200190815260200160002060009054906101000a900460ff16905092915050565b61127561186c565b600073ffffffffffffffffffffffffffffffffffffffff168173ffffffffffffffffffffffffffffffffffffffff16036112e4576040517f08c379a00000000000000000000000000000000000000000000000000000000081526004016112db9061374c565b60405180910390fd5b6112ed81611941565b50565b60007f80ac58cd000000000000000000000000000000000000000000000000000000007bffffffffffffffffffffffffffffffffffffffffffffffffffffffff1916827bffffffffffffffffffffffffffffffffffffffffffffffffffffffff191614806113bb57507f5b5e139f000000000000000000000000000000000000000000000000000000007bffffffffffffffffffffffffffffffffffffffffffffffffffffffff1916827bffffffffffffffffffffffffffffffffffffffffffffffffffffffff1916145b806113cb57506113ca82611d2f565b5b9050919050565b6113db81611d99565b61141a576040517f08c379a0000000000000000000000000000000000000000000000000000000008152600401611411906135c8565b60405180910390fd5b50565b600033905090565b816004600083815260200190815260200160002060006101000a81548173ffffffffffffffffffffffffffffffffffffffff021916908373ffffffffffffffffffffffffffffffffffffffff160217905550808273ffffffffffffffffffffffffffffffffffffffff1661149883610d20565b73ffffffffffffffffffffffffffffffffffffffff167f8c5be1e5ebec7d5bd14f71427d1e84f3dd0314c0f7b2291e5b200ac8c7c3b92560405160405180910390a45050565b6000806114ea83610d20565b90508073ffffffffffffffffffffffffffffffffffffffff168473ffffffffffffffffffffffffffffffffffffffff16148061152c575061152b81856111d9565b5b8061156a57508373ffffffffffffffffffffffffffffffffffffffff1661155284610676565b73ffffffffffffffffffffffffffffffffffffffff16145b91505092915050565b8273ffffffffffffffffffffffffffffffffffffffff1661159382610d20565b73ffffffffffffffffffffffffffffffffffffffff16146115e9576040517f08c379a00000000000000000000000000000000000000000000000000000000081526004016115e0906137de565b60405180910390fd5b600073ffffffffffffffffffffffffffffffffffffffff168273ffffffffffffffffffffffffffffffffffffffff1603611658576040517f08c379a000000000000000000000000000000000000000000000000000000000815260040161164f90613870565b60405180910390fd5b6116658383836001611dda565b8273ffffffffffffffffffffffffffffffffffffffff1661168582610d20565b73ffffffffffffffffffffffffffffffffffffffff16146116db576040517f08c379a00000000000000000000000000000000000000000000000000000000081526004016116d2906137de565b60405180910390fd5b6004600082815260200190815260200160002060006101000a81549073ffffffffffffffffffffffffffffffffffffffff02191690556001600360008573ffffffffffffffffffffffffffffffffffffffff1673ffffffffffffffffffffffffffffffffffffffff168152602001908152602001600020600082825403925050819055506001600360008473ffffffffffffffffffffffffffffffffffffffff1673ffffffffffffffffffffffffffffffffffffffff16815260200190815260200160002060008282540192505081905550816002600083815260200190815260200160002060006101000a81548173ffffffffffffffffffffffffffffffffffffffff021916908373ffffffffffffffffffffffffffffffffffffffff160217905550808273ffffffffffffffffffffffffffffffffffffffff168473ffffffffffffffffffffffffffffffffffffffff167fddf252ad1be2c89b69c2b068fc378daa952ba7f163c4a11628f55a4df523b3ef60405160405180910390a46118678383836001611f38565b505050565b61187461141d565b73ffffffffffffffffffffffffffffffffffffffff16611892610faf565b73ffffffffffffffffffffffffffffffffffffffff16146118e8576040517f08c379a00000000000000000000000000000000000000000000000000000000081526004016118df906138dc565b60405180910390fd5b565b60006118f46108b5565b90506119008282611f3e565b5050565b60006002600083815260200190815260200160002060009054906101000a900473ffffffffffffffffffffffffffffffffffffffff169050919050565b6000600a60009054906101000a900473ffffffffffffffffffffffffffffffffffffffff16905081600a60006101000a81548173ffffffffffffffffffffffffffffffffffffffff021916908373ffffffffffffffffffffffffffffffffffffffff1602179055508173ffffffffffffffffffffffffffffffffffffffff168173ffffffffffffffffffffffffffffffffffffffff167f8be0079c531659141344cd1fd0a4f28419497f9722a3daafe3b4186f6b6457e060405160405180910390a35050565b8173ffffffffffffffffffffffffffffffffffffffff168373ffffffffffffffffffffffffffffffffffffffff1603611a75576040517f08c379a0000000000000000000000000000000000000000000000000000000008152600401611a6c90613948565b60405180910390fd5b80600560008573ffffffffffffffffffffffffffffffffffffffff1673ffffffffffffffffffffffffffffffffffffffff16815260200190815260200160002060008473ffffffffffffffffffffffffffffffffffffffff1673ffffffffffffffffffffffffffffffffffffffff16815260200190815260200160002060006101000a81548160ff0219169083151502179055508173ffffffffffffffffffffffffffffffffffffffff168373ffffffffffffffffffffffffffffffffffffffff167f17307eab39ab6107e8899845ad3d59bd9653f200f220920489ca2b5937696c3183604051611b669190612818565b60405180910390a3505050565b611b7e848484611573565b611b8a8484848461215b565b611bc9576040517f08c379a0000000000000000000000000000000000000000000000000000000008152600401611bc0906139da565b60405180910390fd5b50505050565b6060600b8054611bde90612e75565b80601f0160208091040260200160405190810160405280929190818152602001828054611c0a90612e75565b8015611c575780601f10611c2c57610100808354040283529160200191611c57565b820191906000526020600020905b815481529060010190602001808311611c3a57829003601f168201915b5050505050905090565b606060006001611c70846122e2565b01905060008167ffffffffffffffff811115611c8f57611c8e612ad5565b5b6040519080825280601f01601f191660200182016040528015611cc15781602001600182028036833780820191505090505b509050600082602001820190505b600115611d24578080600190039150507f3031323334353637383961626364656600000000000000000000000000000000600a86061a8153600a8581611d1857611d176139fa565b5b04945060008503611ccf575b819350505050919050565b60007f01ffc9a7000000000000000000000000000000000000000000000000000000007bffffffffffffffffffffffffffffffffffffffffffffffffffffffff1916827bffffffffffffffffffffffffffffffffffffffffffffffffffffffff1916149050919050565b60008073ffffffffffffffffffffffffffffffffffffffff16611dbb83611904565b73ffffffffffffffffffffffffffffffffffffffff1614159050919050565b611de684848484612435565b6001811115611e2a576040517f08c379a0000000000000000000000000000000000000000000000000000000008152600401611e2190613a9b565b60405180910390fd5b6000829050600073ffffffffffffffffffffffffffffffffffffffff168573ffffffffffffffffffffffffffffffffffffffff1603611e7157611e6c8161243b565b611eb0565b8373ffffffffffffffffffffffffffffffffffffffff168573ffffffffffffffffffffffffffffffffffffffff1614611eaf57611eae8582612484565b5b5b600073ffffffffffffffffffffffffffffffffffffffff168473ffffffffffffffffffffffffffffffffffffffff1603611ef257611eed816125f1565b611f31565b8473ffffffffffffffffffffffffffffffffffffffff168473ffffffffffffffffffffffffffffffffffffffff1614611f3057611f2f84826126c2565b5b5b5050505050565b50505050565b600073ffffffffffffffffffffffffffffffffffffffff168273ffffffffffffffffffffffffffffffffffffffff1603611fad576040517f08c379a0000000000000000000000000000000000000000000000000000000008152600401611fa490613b07565b60405180910390fd5b611fb681611d99565b15611ff6576040517f08c379a0000000000000000000000000000000000000000000000000000000008152600401611fed90613b73565b60405180910390fd5b612004600083836001611dda565b61200d81611d99565b1561204d576040517f08c379a000000000000000000000000000000000000000000000000000000000815260040161204490613b73565b60405180910390fd5b6001600360008473ffffffffffffffffffffffffffffffffffffffff1673ffffffffffffffffffffffffffffffffffffffff16815260200190815260200160002060008282540192505081905550816002600083815260200190815260200160002060006101000a81548173ffffffffffffffffffffffffffffffffffffffff021916908373ffffffffffffffffffffffffffffffffffffffff160217905550808273ffffffffffffffffffffffffffffffffffffffff16600073ffffffffffffffffffffffffffffffffffffffff167fddf252ad1be2c89b69c2b068fc378daa952ba7f163c4a11628f55a4df523b3ef60405160405180910390a4612157600083836001611f38565b5050565b600061217c8473ffffffffffffffffffffffffffffffffffffffff16612741565b156122d5578373ffffffffffffffffffffffffffffffffffffffff1663150b7a026121a561141d565b8786866040518563ffffffff1660e01b81526004016121c79493929190613be8565b6020604051808303816000875af192505050801561220357506040513d601f19601f820116820180604052508101906122009190613c49565b60015b612285573d8060008114612233576040519150601f19603f3d011682016040523d82523d6000602084013e612238565b606091505b50600081510361227d576040517f08c379a0000000000000000000000000000000000000000000000000000000008152600401612274906139da565b60405180910390fd5b805181602001fd5b63150b7a0260e01b7bffffffffffffffffffffffffffffffffffffffffffffffffffffffff1916817bffffffffffffffffffffffffffffffffffffffffffffffffffffffff1916149150506122da565b600190505b949350505050565b600080600090507a184f03e93ff9f4daa797ed6e38ed64bf6a1f0100000000000000008310612340577a184f03e93ff9f4daa797ed6e38ed64bf6a1f0100000000000000008381612336576123356139fa565b5b0492506040810190505b6d04ee2d6d415b85acef8100000000831061237d576d04ee2d6d415b85acef81000000008381612373576123726139fa565b5b0492506020810190505b662386f26fc1000083106123ac57662386f26fc1000083816123a2576123a16139fa565b5b0492506010810190505b6305f5e10083106123d5576305f5e10083816123cb576123ca6139fa565b5b0492506008810190505b61271083106123fa5761271083816123f0576123ef6139fa565b5b0492506004810190505b6064831061241d5760648381612413576124126139fa565b5b0492506002810190505b600a831061242c576001810190505b80915050919050565b50505050565b6008805490506009600083815260200190815260200160002081905550600881908060018154018082558091505060019003906000526020600020016000909190919091505550565b6000600161249184610da6565b61249b9190613c76565b9050600060076000848152602001908152602001600020549050818114612580576000600660008673ffffffffffffffffffffffffffffffffffffffff1673ffffffffffffffffffffffffffffffffffffffff168152602001908152602001600020600084815260200190815260200160002054905080600660008773ffffffffffffffffffffffffffffffffffffffff1673ffffffffffffffffffffffffffffffffffffffff168152602001908152602001600020600084815260200190815260200160002081905550816007600083815260200190815260200160002081905550505b6007600084815260200190815260200160002060009055600660008573ffffffffffffffffffffffffffffffffffffffff1673ffffffffffffffffffffffffffffffffffffffff16815260200190815260200160002060008381526020019081526020016000206000905550505050565b600060016008805490506126059190613c76565b905060006009600084815260200190815260200160002054905060006008838154811061263557612634613444565b5b90600052602060002001549050806008838154811061265757612656613444565b5b9060005260206000200181905550816009600083815260200190815260200160002081905550600960008581526020019081526020016000206000905560088054806126a6576126a5613caa565b5b6001900381819060005260206000200160009055905550505050565b60006126cd83610da6565b905081600660008573ffffffffffffffffffffffffffffffffffffffff1673ffffffffffffffffffffffffffffffffffffffff168152602001908152602001600020600083815260200190815260200160002081905550806007600084815260200190815260200160002081905550505050565b6000808273ffffffffffffffffffffffffffffffffffffffff163b119050919050565b6000604051905090565b600080fd5b600080fd5b60007fffffffff0000000000000000000000000000000000000000000000000000000082169050919050565b6127ad81612778565b81146127b857600080fd5b50565b6000813590506127ca816127a4565b92915050565b6000602082840312156127e6576127e561276e565b5b60006127f4848285016127bb565b91505092915050565b60008115159050919050565b612812816127fd565b82525050565b600060208201905061282d6000830184612809565b92915050565b600081519050919050565b600082825260208201905092915050565b60005b8381101561286d578082015181840152602081019050612852565b60008484015250505050565b6000601f19601f8301169050919050565b600061289582612833565b61289f818561283e565b93506128af81856020860161284f565b6128b881612879565b840191505092915050565b600060208201905081810360008301526128dd818461288a565b905092915050565b6000819050919050565b6128f8816128e5565b811461290357600080fd5b50565b600081359050612915816128ef565b92915050565b6000602082840312156129315761293061276e565b5b600061293f84828501612906565b91505092915050565b600073ffffffffffffffffffffffffffffffffffffffff82169050919050565b600061297382612948565b9050919050565b61298381612968565b82525050565b600060208201905061299e600083018461297a565b92915050565b6129ad81612968565b81146129b857600080fd5b50565b6000813590506129ca816129a4565b92915050565b600080604083850312156129e7576129e661276e565b5b60006129f5858286016129bb565b9250506020612a0685828601612906565b9150509250929050565b612a19816128e5565b82525050565b6000606082019050612a34600083018661297a565b8181036020830152612a46818561288a565b9050612a556040830184612a10565b949350505050565b6000602082019050612a726000830184612a10565b92915050565b600080600060608486031215612a9157612a9061276e565b5b6000612a9f868287016129bb565b9350506020612ab0868287016129bb565b9250506040612ac186828701612906565b9150509250925092565b600080fd5b600080fd5b7f4e487b7100000000000000000000000000000000000000000000000000000000600052604160045260246000fd5b612b0d82612879565b810181811067ffffffffffffffff82111715612b2c57612b2b612ad5565b5b80604052505050565b6000612b3f612764565b9050612b4b8282612b04565b919050565b600067ffffffffffffffff821115612b6b57612b6a612ad5565b5b612b7482612879565b9050602081019050919050565b82818337600083830152505050565b6000612ba3612b9e84612b50565b612b35565b905082815260208101848484011115612bbf57612bbe612ad0565b5b612bca848285612b81565b509392505050565b600082601f830112612be757612be6612acb565b5b8135612bf7848260208601612b90565b91505092915050565b600060208284031215612c1657612c1561276e565b5b600082013567ffffffffffffffff811115612c3457612c33612773565b5b612c4084828501612bd2565b91505092915050565b600060208284031215612c5f57612c5e61276e565b5b6000612c6d848285016129bb565b91505092915050565b612c7f816127fd565b8114612c8a57600080fd5b50565b600081359050612c9c81612c76565b92915050565b60008060408385031215612cb957612cb861276e565b5b6000612cc7858286016129bb565b9250506020612cd885828601612c8d565b9150509250929050565b600067ffffffffffffffff821115612cfd57612cfc612ad5565b5b612d0682612879565b9050602081019050919050565b6000612d26612d2184612ce2565b612b35565b905082815260208101848484011115612d4257612d41612ad0565b5b612d4d848285612b81565b509392505050565b600082601f830112612d6a57612d69612acb565b5b8135612d7a848260208601612d13565b91505092915050565b60008060008060808587031215612d9d57612d9c61276e565b5b6000612dab878288016129bb565b9450506020612dbc878288016129bb565b9350506040612dcd87828801612906565b925050606085013567ffffffffffffffff811115612dee57612ded612773565b5b612dfa87828801612d55565b91505092959194509250565b60008060408385031215612e1d57612e1c61276e565b5b6000612e2b858286016129bb565b9250506020612e3c858286016129bb565b9150509250929050565b7f4e487b7100000000000000000000000000000000000000000000000000000000600052602260045260246000fd5b60006002820490506001821680612e8d57607f821691505b602082108103612ea057612e9f612e46565b5b50919050565b7f4552433732313a20617070726f76616c20746f2063757272656e74206f776e6560008201527f7200000000000000000000000000000000000000000000000000000000000000602082015250565b6000612f0260218361283e565b9150612f0d82612ea6565b604082019050919050565b60006020820190508181036000830152612f3181612ef5565b9050919050565b7f4552433732313a20617070726f76652063616c6c6572206973206e6f7420746f60008201527f6b656e206f776e6572206f7220617070726f76656420666f7220616c6c000000602082015250565b6000612f94603d8361283e565b9150612f9f82612f38565b604082019050919050565b60006020820190508181036000830152612fc381612f87565b9050919050565b7f4552433732313a2063616c6c6572206973206e6f7420746f6b656e206f776e6560008201527f72206f7220617070726f76656400000000000000000000000000000000000000602082015250565b6000613026602d8361283e565b915061303182612fca565b604082019050919050565b6000602082019050818103600083015261305581613019565b9050919050565b7f455243373231456e756d657261626c653a206f776e657220696e646578206f7560008201527f74206f6620626f756e6473000000000000000000000000000000000000000000602082015250565b60006130b8602b8361283e565b91506130c38261305c565b604082019050919050565b600060208201905081810360008301526130e7816130ab565b9050919050565b60008190508160005260206000209050919050565b60006020601f8301049050919050565b600082821b905092915050565b6000600883026131507fffffffffffffffffffffffffffffffffffffffffffffffffffffffffffffffff82613113565b61315a8683613113565b95508019841693508086168417925050509392505050565b6000819050919050565b600061319761319261318d846128e5565b613172565b6128e5565b9050919050565b6000819050919050565b6131b18361317c565b6131c56131bd8261319e565b848454613120565b825550505050565b600090565b6131da6131cd565b6131e58184846131a8565b505050565b5b81811015613209576131fe6000826131d2565b6001810190506131eb565b5050565b601f82111561324e5761321f816130ee565b61322884613103565b81016020851015613237578190505b61324b61324385613103565b8301826131ea565b50505b505050565b600082821c905092915050565b600061327160001984600802613253565b1980831691505092915050565b600061328a8383613260565b9150826002028217905092915050565b6132a382612833565b67ffffffffffffffff8111156132bc576132bb612ad5565b5b6132c68254612e75565b6132d182828561320d565b600060209050601f83116001811461330457600084156132f2578287015190505b6132fc858261327e565b865550613364565b601f198416613312866130ee565b60005b8281101561333a57848901518255600182019150602085019450602081019050613315565b868310156133575784890151613353601f891682613260565b8355505b6001600288020188555050505b505050505050565b7f4d65737361676520636f6e74656e742063616e277420626520656d7074790000600082015250565b60006133a2601e8361283e565b91506133ad8261336c565b602082019050919050565b600060208201905081810360008301526133d181613395565b9050919050565b7f496e76616c6964206d6573736167652049440000000000000000000000000000600082015250565b600061340e60128361283e565b9150613419826133d8565b602082019050919050565b6000602082019050818103600083015261343d81613401565b9050919050565b7f4e487b7100000000000000000000000000000000000000000000000000000000600052603260045260246000fd5b7f4e487b7100000000000000000000000000000000000000000000000000000000600052601160045260246000fd5b60006134ad826128e5565b91507fffffffffffffffffffffffffffffffffffffffffffffffffffffffffffffffff82036134df576134de613473565b5b600182019050919050565b7f455243373231456e756d657261626c653a20676c6f62616c20696e646578206f60008201527f7574206f6620626f756e64730000000000000000000000000000000000000000602082015250565b6000613546602c8361283e565b9150613551826134ea565b604082019050919050565b6000602082019050818103600083015261357581613539565b9050919050565b7f4552433732313a20696e76616c696420746f6b656e2049440000000000000000600082015250565b60006135b260188361283e565b91506135bd8261357c565b602082019050919050565b600060208201905081810360008301526135e1816135a5565b9050919050565b7f4552433732313a2061646472657373207a65726f206973206e6f74206120766160008201527f6c6964206f776e65720000000000000000000000000000000000000000000000602082015250565b600061364460298361283e565b915061364f826135e8565b604082019050919050565b6000602082019050818103600083015261367381613637565b9050919050565b600081905092915050565b600061369082612833565b61369a818561367a565b93506136aa81856020860161284f565b80840191505092915050565b60006136c28285613685565b91506136ce8284613685565b91508190509392505050565b7f4f776e61626c653a206e6577206f776e657220697320746865207a65726f206160008201527f6464726573730000000000000000000000000000000000000000000000000000602082015250565b600061373660268361283e565b9150613741826136da565b604082019050919050565b6000602082019050818103600083015261376581613729565b9050919050565b7f4552433732313a207472616e736665722066726f6d20696e636f72726563742060008201527f6f776e6572000000000000000000000000000000000000000000000000000000602082015250565b60006137c860258361283e565b91506137d38261376c565b604082019050919050565b600060208201905081810360008301526137f7816137bb565b9050919050565b7f4552433732313a207472616e7366657220746f20746865207a65726f2061646460008201527f7265737300000000000000000000000000000000000000000000000000000000602082015250565b600061385a60248361283e565b9150613865826137fe565b604082019050919050565b600060208201905081810360008301526138898161384d565b9050919050565b7f4f776e61626c653a2063616c6c6572206973206e6f7420746865206f776e6572600082015250565b60006138c660208361283e565b91506138d182613890565b602082019050919050565b600060208201905081810360008301526138f5816138b9565b9050919050565b7f4552433732313a20617070726f766520746f2063616c6c657200000000000000600082015250565b600061393260198361283e565b915061393d826138fc565b602082019050919050565b6000602082019050818103600083015261396181613925565b9050919050565b7f4552433732313a207472616e7366657220746f206e6f6e20455243373231526560008201527f63656976657220696d706c656d656e7465720000000000000000000000000000602082015250565b60006139c460328361283e565b91506139cf82613968565b604082019050919050565b600060208201905081810360008301526139f3816139b7565b9050919050565b7f4e487b7100000000000000000000000000000000000000000000000000000000600052601260045260246000fd5b7f455243373231456e756d657261626c653a20636f6e736563757469766520747260008201527f616e7366657273206e6f7420737570706f727465640000000000000000000000602082015250565b6000613a8560358361283e565b9150613a9082613a29565b604082019050919050565b60006020820190508181036000830152613ab481613a78565b9050919050565b7f4552433732313a206d696e7420746f20746865207a65726f2061646472657373600082015250565b6000613af160208361283e565b9150613afc82613abb565b602082019050919050565b60006020820190508181036000830152613b2081613ae4565b9050919050565b7f4552433732313a20746f6b656e20616c7265616479206d696e74656400000000600082015250565b6000613b5d601c8361283e565b9150613b6882613b27565b602082019050919050565b60006020820190508181036000830152613b8c81613b50565b9050919050565b600081519050919050565b600082825260208201905092915050565b6000613bba82613b93565b613bc48185613b9e565b9350613bd481856020860161284f565b613bdd81612879565b840191505092915050565b6000608082019050613bfd600083018761297a565b613c0a602083018661297a565b613c176040830185612a10565b8181036060830152613c298184613baf565b905095945050505050565b600081519050613c43816127a4565b92915050565b600060208284031215613c5f57613c5e61276e565b5b6000613c6d84828501613c34565b91505092915050565b6000613c81826128e5565b9150613c8c836128e5565b9250828203905081811115613ca457613ca3613473565b5b92915050565b7f4e487b7100000000000000000000000000000000000000000000000000000000600052603160045260246000fdfea26469706673582212207721b6e7fae32db4f16e840dcdc38515462516ae326065e549fe3e24bfedd43464736f6c6343000813003368747470733a2f2f676174657761792e70696e6174612e636c6f75642f697066732f516d5a6e6a33566e4c5977574651774d644a7a3142324238454e73415541424d39536253446e6b5742726a725934",
  "linkReferences": {},
  "deployedLinkReferences": {}
}